:020000040800F2
:100000001008002089010008910100083928000823
:100010009501000897010008990100080000000000
:100020000000000000000000000000009B0100082C
:100030009D010008000000009F0100085D350008D8
:10004000A3010008A3010008A3010008A301000800
:10005000A3010008A3010008A3010008A3010008F0
:10006000A3010008A3010008A3010008A3010008E0
:10007000A3010008A3010008A3010008A3010008D0
:10008000A3010008A3010008A3010008A3010008C0
:10009000A3010008A3010008A3010008A3010008B0
:1000A000A3010008A3010008A3010008A3010008A0
:1000B000A3010008A3010008A3010008A301000890
:1000C000A3010008A3010008A3010008A301000880
:1000D000A3010008A3010008A3010008A301000870
:1000E000A3010008A3010008A301000800F002F822
:1000F00000F03AF80AA090E8000C82448344AAF188
:100100000107DA4501D100F02FF8AFF2090EBAE885
:100110000F0013F0010F18BFFB1A43F0010318473B
:10012000505A0000705A0000103A24BF78C878C1B5
:10013000FAD8520724BF30C830C144BF04680C60ED
:10014000704700000023002400250026103A28BF35
:1001500078C1FBD8520728BF30C148BF0B60704739
:100160001FB51FBD10B510BD00F004F91146FFF713
:10017000F7FF03F0A3FD00F022F903B4FFF7F2FF4D
:1001800003BC00F025F900000948804709480047F2
:10019000FEE7FEE7FEE7FEE7FEE7FEE7FEE7FEE737
:1001A000FEE7FEE704480549054A064B7047000094
:1001B00069350008ED00000810020020100800203A
:1001C0001004002010040020032A40F2308010F0B8
:1001D000030C00F0158011F8013BBCF1020F6244E2
:1001E00098BF11F801CB00F8013B38BF11F8013B73
:1001F000A2F1040298BF00F801CB38BF00F8013B20
:1002000011F0030300F02580083AC0F0088051F88F
:10021000043B083A51F804CBA0E80810F5E7121D9A
:100220005CBF51F8043B40F8043BAFF30080D207B9
:1002300024BF11F8013B11F801CB48BF11F8012B85
:1002400024BF00F8013B00F801CB48BF00F8012BA8
:10025000704710B5203AC0F00B80B1E81850203A32
:10026000A0E81850B1E81850A0E81850BFF4F5AF56
:100270005FEA027C24BFB1E81850A0E8185044BFE0
:1002800018C918C0BDE810405FEA827C24BF51F84D
:10029000043B40F8043B08BF7047D20728BF31F841
:1002A000023B48BF11F8012B28BF20F8023B48BF92
:1002B00000F8012B70474FF000020429C0F01280B3
:1002C00010F0030C00F01B80CCF1040CBCF1020F09
:1002D00018BF00F8012BA8BF20F8022BA1EB0C01DE
:1002E00000F00DB85FEAC17C24BF00F8012B00F8D4
:1002F000012B48BF00F8012B70474FF0000200B5FA
:10030000134694469646203922BFA0E80C50A0E838
:100310000C50B1F12001BFF4F7AF090728BFA0E8E6
:100320000C5048BF0CC05DF804EB890028BF40F8B2
:10033000042B08BF704748BF20F8022B11F0804FF4
:1003400018BF00F8012B704770477047704710B511
:1003500000F008F8006810BD10B5044600F002F87F
:10036000046010BD00487047AC0100200048704791
:10037000AC0100207546FFF7F9FFAE46050069465F
:10038000534620F00700854618B020B5FFF70AFF56
:10039000BDE820404FF000064FF000074FF0000886
:1003A0004FF0000B21F00701AC46ACE8C009ACE807
:1003B000C009ACE8C009ACE8C0098D46704710B56B
:1003C0000446AFF300802046BDE81040FFF7D5BEDD
:1003D00001491820ABBEFEE726000200704700006E
:1003E0002DE9F04F9FB01CA802F0C0FD19A802F043
:1003F000CBFDBDF9700004F012FC07460022AE4BA5
:1004000004F086FACDE9120104F094F90646BDF92C
:10041000720004F004FC0022A74BCDE9120104F0A5
:1004200077FA074604F086F98146BDF9740004F0B6
:10043000F6FB0022A04BCDE9120104F069FA074651
:1004400004F078F982469D48006804F04BFFCDE93E
:100450001201BDF9760004F0E2FB0022984BCDE9D1
:100460000E0104F055FACDE91001DDE9122304F084
:100470004FFE074604F05EF915909248006804F0BC
:1004800031FFCDE91001BDF9780004F0C8FB074643
:1004900000228B4B04F03CFACDE90E01DDE910237C
:1004A00004F036FECDE9120104F044F914905146EF
:1004B000504605F0BBF849461190484605F0B6F89D
:1004C00031460F90304605F0B1F80E900F9904F0C8
:1004D00035FF1090119904F031FF834604F002FFBC
:1004E000CDE9120104F000F9074604F023F9169053
:1004F0003046169905F09AF806464846169905F0D2
:1005000095F881465046169905F090F882466E4857
:10051000006804F0E7FECDE91001504604F0E2FE69
:10052000074600224FF0804303F0F2FBCDE90201C1
:10053000304604F0D7FE074600224FF0804303F018
:10054000E7FBCDE90001DDE9022304F025F9CDE95F
:10055000040104F0C9F8CDE90801484604F0C2FEE0
:10056000CDE90601DDE9082304F0D2F9CDE90A015D
:1005700003F094FA4FF00052544BCDE90C0104F013
:10058000A1FBCDE90E01DDE9102304F0C1FDCDE9A9
:10059000120104F0CFF818904D48006804F0A2FE54
:1005A000CDE91001504604F09DFE074600224FF0B1
:1005B000804303F0ADFBCDE90201484604F092FE12
:1005C000074600224FF0804303F0A2FBCDE9000173
:1005D000DDE9022304F0E0F8CDE9040104F084F839
:1005E000CDE9080131463B4805F020F8074604F004
:1005F00079FECDE90601DDE9082304F089F9CDE9AA
:100600000A0103F04BFA4FF00052304BCDE90C01D8
:1006100004F058FBCDE90E01DDE9102304F078FD6C
:10062000CDE9120104F086F81790159804F05AFEEF
:10063000294A2A4BCDE9120104F044FB074604F095
:1006400079F80446149804F04DFE234A234BCDE973
:10065000120104F037FB074604F06CF80546002051
:10066000189904F0E3FF804621461D48006804F015
:1006700065FE83464FF07E5104F0D8FF07464146A1
:1006800004F05CFE164908600020179904F0CEFFC4
:10069000804629461348006804F050FE83464FF018
:1006A0007E5104F0C3FF0746414604F047FE0D4962
:1006B00008601FB0BDE8F08F0000C040200000209F
:1006C000006050402400002018000020DCA54C40B1
:1006D0001C000020000080BF7B14AE47E17A743F0D
:1006E000280000202C00002010B50C4800680C49A0
:1006F000086000F005FC044604F050FF074908605C
:10070000074801680548006805F08EF80446054969
:1007100004F082FE0449086010BD0000340000208F
:100720003000002000007A44380000202DE9F04F0E
:1007300091B00DA802F028FCBDF9340004F06FFA66
:10074000064600225D4B04F0E3F8044603F0F2FF96
:100750008246BDF9360004F062FA06460022574B85
:1007600004F0D6F8044603F0E5FF8346BDF93800EF
:1007700004F055FA06460022504B04F0C9F804462E
:1007800003F0D8FF0C900C9804F0ACFD0646002254
:100790004FF0804303F0BCFACDE90201504604F06B
:1007A000A1FD064600224FF0804303F0B1FACDE9E7
:1007B0000001DDE9022303F0EFFFCDE9040103F0BE
:1007C00093FFCDE90801584604F08CFDCDE9060100
:1007D000DDE9082304F09CF8CDE90A0103F05EF995
:1007E00004464FF00052364B04F06CFA804603F09A
:1007F000A1FF344908600C9804F074FD00224FF00A
:100800008043CDE9000103F083FACDE904015846A5
:1008100004F068FD00224FF08043CDE9000103F0B1
:1008200077FACDE90201DDE9042303F0B5FF804644
:1008300003F05AFFCDE908015146234804F0F6FEC3
:10084000804604F04FFDCDE90601DDE9082304F000
:100850005FF8064603F022F904464FF00052184BA9
:1008600004F030FACDE90A0103F064FF174908608B
:10087000BDF93A0004F0D3F906460022144B04F007
:1008800047F8044603F056FF12490860BDF93C00E2
:1008900004F0C5F9064600220D4B04F039F8044671
:1008A00003F048FF0C49086000F02AFB044604F0FE
:1008B00075FE0A49086011B0BDE8F08F0000C04025
:1008C000DCA54C4018000020000080BF1C00002068
:1008D0000060504020000020240000203000002054
:1008E0002DE9FF5F4FF00008C146444801684046CB
:1008F00004F09AFF044642480168484604F094FF19
:10090000054621463F4804F091FE039029463E48A3
:1009100004F08CFE02903D49204604F053FE02D2C2
:100920004FF0010A01E04FF0000A3949204604F077
:1009300049FF01D2012000E000200AEA000ABAF1D2
:10094000000F04D02146002004F070FE83462F499A
:10095000284604F037FE02D24FF0010A01E04FF0C2
:10096000000A2B49284604F02DFF01D2012000E0A7
:1009700000200AEA000ABAF1000F04D0294600203C
:1009800004F054FE019023480168204604F04CFF17
:10099000009021480168009804F03EFD82461F49FE
:1009A00004F044FE06461E480168284604F03CFF59
:1009B000009019480168009804F02EFD82461949FC
:1009C00004F034FE07465946039804F0B7FC82460B
:1009D000314604F0B3FC14490860DDE9011004F06D
:1009E000ADFC8246394604F0A9FC0F49486009482D
:1009F00004600B480560BDE8FF9F00002800002050
:100A00002C0000206F12033A0AD7A33B000040409D
:100A1000000040C03C000020380000200AD7233CE2
:100A200040000020CDCC4C3D6801002030B585B0A1
:100A3000584802F06DFB684600F0C0F855488079D0
:100A4000052840DD544A0099106804F077FC0546FB
:100A5000019904F0E9FE04464FF07E5104F06EFC6B
:100A60004D4908604C4A0099506804F067FC0546FF
:100A7000019904F063FC04464FF07E5104F05EFCE3
:100A800045494860444A0099906804F0CDFE054607
:100A9000019904F053FC04464FF07E5104F04EFCE3
:100AA0003D4988603C4A0099D06804F0BDFE054687
:100AB000019904F0B9FE04464FF07E5104F03EFC6B
:100AC0003549C86042E033488079052801DA0120C1
:100AD00000E000202F498979002901DD012100E093
:100AE0000021084030B100202B4908604860886030
:100AF000C8602BE0284A0099106804F01FFC0446E7
:100B0000019904F091FE24490860234A0099506835
:100B100004F014FC0446019904F010FC1E494860DE
:100B20001D4A0099906804F07FFE0446019904F084
:100B300005FC19498860184A0099D06804F074FED1
:100B40000446019904F070FE1349C860002419E0BE
:100B5000114951F82400002104F034FD01D2002095
:100B60000BE00D4951F824000C4904F02BFE01D292
:100B70000A4802E0084850F82400074941F82400D8
:100B8000601CC4B2042CE3DB034802F06FFA05B02A
:100B900030BD00007C0100209C01002000F8E045F1
:100BA00070B5044600F0ACF905462E4602E000F0B0
:100BB000A7F90646701BA042F9D370BD10B50446D4
:100BC000142202492046FFF744FB10BD68010020B3
:100BD0002DE9F8470346002400200025844600271D
:100BE00000226EE14FF0010808FA02F4D1F800800B
:100BF00008EA0400A0427DD1DFF8D0A2D1F8048039
:100C0000A8EB0A09D0453AD014DCB8F1030F50D054
:100C100009DCB8F1000F31D0B8F1010F1CD0B8F1E8
:100C2000020F49D120E0B8F1110F18D0B8F1120F1E
:100C300042D11EE0B9F5881F25D006DCB9F5803F0A
:100C400020D0B9F5801F37D11AE0B9F5001F18D0B0
:100C5000B9F5041F30D117E0D1F80CC02DE0D1F860
:100C60000C8008F1040C28E0D1F80C8008F1080C85
:100C700023E0D1F80C8008F10C0C1EE000BF00BF8F
:100C800000BF00BF00BF00BFD1F80880B8F1000F5F
:100C900002D14FF0040C0BE0D1F80880B8F1010F3D
:100CA00003D14FF0080C1C6102E04FF0080C5C61AE
:100CB00003E04FF0000C00E000BF00BFFF2801D8A8
:100CC000984601E003F104084646FF2802D84FEA9F
:100CD000820803E0A2F108084FEA88084746D6F8E0
:100CE00000804FF00F0909FA07F928EA09080CFA01
:100CF00007F900E088E048EA0908C6F80080D1F862
:100D0000048008F08058B8F1805F7DD100BFDFF823
:100D1000C081D8F8188048F00108DFF8B491C9F80C
:100D20001880C846D8F8188008F00108CDF800806F
:100D300000BF00BF4FEAB9384FEA920958F829506E
:100D40004FEA82784FEA18794FF00F0808FA09F84D
:100D500025EA0805DFF87C81434502D14FF0000801
:100D600016E0DFF87481434502D14FF001080FE02F
:100D7000DFF86881434502D14FF0020808E0DFF850
:100D80006081434502D14FF0030801E04FF00408B1
:100D90004FEA82794FEA197908FA09F848EA050515
:100DA000DFF840814FEA920948F82950D1F80480D1
:100DB00008F48038B8F5803F0AD1DFF82C81D8F8E4
:100DC000008048EA0008DFF82091C9F8008009E0B7
:100DD000DFF81481D8F8008028EA0008DFF80891CD
:100DE000C9F80080D1F8048008F40038B8F5003F55
:100DF00010D1DFF8F48008F10408D8F8008048EA40
:100E00000008DFF8E49000E05AE009F10409C9F8AD
:100E100000800DE0DFF8D08008F10408D8F80080E9
:100E200028EA0008DFF8C09009F10409C9F8008039
:100E3000D1F8048008F48018B8F5801F0ED1DFF8CF
:100E4000A88008F10808D8F8008048EA0008DFF810
:100E5000989009F10809C9F800800DE0DFF8888052
:100E600008F10808D8F8008028EA0008DFF8789030
:100E700009F10809C9F80080D1F8048008F40018C5
:100E8000B8F5001F0ED1DFF8608008F10C08D8F823
:100E9000008048EA0008DFF8509009F10C09C9F811
:100EA00000800DE0DFF8408008F10C08D8F80080E1
:100EB00028EA0008DFF8309009F10C09C9F8008031
:100EC000521C102AFFF48EAEBDE8F8870000111006
:100ED0000010024000080140000C014000100140D9
:100EE000001401400800014000040140C2684A406B
:100EF000C26070470AB1016101E00B0403617047F1
:100F000001480068704700000400002070B50446E6
:100F1000002600250CB9012070BD94F83D0028B9C9
:100F2000002084F83C00204600F010FB242084F8C8
:100F30003D002068006820F001002168086000F092
:100F400099FC05464C496068884206D84B48854262
:100F500001D2012007E0002005E04948854201D286
:100F6000012000E00020012800D1D5E74548B5FB6D
:100F7000F0F62068466040496068884201D8701CDD
:100F800007E04FF4967070434FF47A71B0FBF1F0C4
:100F9000401C2168086238496068884214D8681E7D
:100FA00061684900B0FBF1F0401CC0F30B0004285D
:100FB00001D204203DE0681E61684900B0FBF1F0F9
:100FC000401CC0F30B0034E0A06838B9681E6168AB
:100FD00001EB4101B0FBF1F0401C0AE0681E6168C2
:100FE00001EBC10202EB0111B0FBF1F0401C40F437
:100FF0008040C0F30B0008B901201AE0A06848B98E
:10100000681E616801EB4101B0FBF1F0401CC0F3C8
:101010000B000CE0681E616801EBC10202EB0111DC
:10102000B0FBF1F0401CC0F30B0040F4804040F4F2
:1010300000402168C861D4E90701084321680860BD
:10104000D4E90310084321688860D4E90501084306
:101050002168C8602068006840F0010021680860CD
:1010600000202064202084F83D000020206384F8C4
:101070003E0000BF50E70000A086010080841E00F3
:1010800000093D0040420F002DE9F843044689461F
:1010900017469846089E0025FFF732FF054694F84C
:1010A0003D0020287ED119230122C3492046009506
:1010B00001F08DFD10B10220BDE8F88300BF94F867
:1010C0003C00012801D10220F6E7012084F83C0011
:1010D00000BF2068006800F0010028B9206800689F
:1010E00040F00100216808602068006820F400607A
:1010F00021680860222084F83D00102084F83E001A
:10110000002020646762A4F82A80AC48E062608D09
:1011100020852B4632464946204601F025FC80B109
:10112000206C042806D100BF002084F83C0000BFDA
:101130000120C1E700BF002084F83C0000BF03206D
:10114000BAE7208D88B900BF002000902068406970
:10115000009020688069009000BF00BF2068006890
:1011600040F40070216808604BE0208D01281AD1FE
:101170002068006820F480602168086072B600BFB3
:1011800000200090206840690090206880690090ED
:1011900000BF00BF2068006840F40070216808604C
:1011A00062B62EE005E1208D022819D12068006882
:1011B00040F400602168086072B600BF0020009013
:1011C00020684069009020688069009000BF00BFDF
:1011D0002068006820F480602168086062B610E032
:1011E0002068006840F480602168086000BF00202B
:1011F000009020684069009020688069009000BFDE
:1012000000BFC7E0208D032875D8208D01281AD192
:101210002A463146204601F06EFD30B1206C202870
:1012200001D1032048E7012046E720680069C1B2E8
:10123000626A501C60621170208D401E2085608D96
:10124000401E6085A6E0208D02282CD13346002266
:101250005B492046009501F0BAFC08B103202BE75A
:1012600072B62068006840F4007021680860206849
:101270000069C1B2626A501C60621170208D401E0C
:101280002085608D401E608562B620680069C1B20D
:10129000626A501C60621170208D401E2085608D36
:1012A000401E608576E03346002245492046009581
:1012B00001F08DFC08B10320FEE62068006820F4F0
:1012C00080602168086072B620680069C1B2626AF5
:1012D000501C60621170208D401E2085608D401E64
:1012E00060853346002236492046009501F06FFCA8
:1012F00010B10320E0E621E02068006840F40070AF
:101300002168086020680069C1B2626A501C60628E
:101310001170208D401E2085608D401E608562B654
:1013200020680069C1B2626A501C60621170208D31
:10133000401E2085608D401E60852BE02A46314688
:10134000204601F0D8FC30B1206C202801D10320C8
:10135000B2E60120B0E620680069C1B2626A501CA2
:1013600060621170208D401E2085608D401E60855A
:1013700020684069C0F3800060B120680069C1B294
:10138000626A501C60621170208D401E2085608D45
:10139000401E6085208D00287FF434AF202084F823
:1013A0003D00002084F83E0000BF84F83C0000BFF0
:1013B00082E6022080E60000020010000000FFFF2D
:1013C000040001002DE9FC5F04460F469046994653
:1013D000DDE90CAB0E9E0025FFF792FD054694F863
:1013E0003D0020287ED11923012256492046009530
:1013F00001F0EDFB10B10220BDE8FC9F00BF94F8A6
:101400003C00012801D10220F6E7012084F83C00CD
:1014100000BF2068006800F0010028B9206800685B
:1014200040F00100216808602068006820F4006036
:1014300021680860212084F83D00402084F83E00A7
:1014400000202064C4F824A0A4F82AB03E48E0623A
:10145000608D20854B46424639462046CDE90065E1
:1014600001F01AFB80B1206C042806D100BF0020D7
:1014700084F83C0000BF0120BEE700BF002084F8D4
:101480003C0000BF0320B7E733E02A463146204640
:1014900001F068FC60B1206C042807D12068006866
:1014A00040F40070216808600120A5E70320A3E74D
:1014B000616A481C6062087821680861208D401EBE
:1014C0002085608D401E608520684069C0F38000E3
:1014D00078B1208D68B1616A481C60620878216823
:1014E000086100E02CE0208D401E2085608D401EAC
:1014F0006085208D0028C8D12A463146204601F05B
:101500003BFB60B1206C042807D12068006840F4E0
:1015100000702168086001206EE703206CE72068F6
:10152000006840F4007021680860202084F83D00C5
:10153000002084F83E0000BF84F83C0000BF5BE759
:10154000022059E7020010000000FFFF10B586B02E
:10155000044600BF1548806940F0080013498861BF
:101560000846806900F00800019000BF00BF1049E4
:101570002068884217D1C0200290122003900320D7
:10158000059002A90B48FFF723FB00BF0748C0697D
:1015900040F400100549C8610846C06900F4001015
:1015A000019000BF00BF06B010BD00000010024057
:1015B00000540040000C01400348006803490978CA
:1015C0000844014908607047040000200C00002016
:1015D00070B504460E4800784FF47A71B1FBF0F014
:1015E0000C490968B1FBF0F5284600F0DDFF08B1B1
:1015F000012070BD102C07D200222146501E00F0A1
:101600000DF80548046001E00120F2E70020F0E752
:101610000C00002000000020080000202DE9F05FF1
:1016200080460D461646002701F082FE07463946E1
:101630002A46334601F00700C0F1070ABAF1040F49
:1016400002D94FF0040A01E0C0F1070AD14600F1C7
:10165000040ABAF1070F02D24FF0000A01E0A0F12C
:10166000030AD4464FF0010A0AFA09FAAAF1010A5C
:101670000AEA020A0AFA0CFA4FF0010B0BFA0CFB09
:10168000ABF1010B0BEA030B4AEA0B04214640467F
:1016900001F056FEBDE8F09F70B504460D460026E9
:1016A0006D48006800F00700A8420ED26A48006842
:1016B00020F007002843684908600846006800F0E9
:1016C0000700A84201D0012070BD207800F0020080
:1016D00002281DD1207800F00400042805D15F48BD
:1016E000406840F4E0605D494860207800F0080000
:1016F000082805D15948406840F46050574948606F
:101700005648406820F0F000A168084353494860FB
:10171000207800F0010000285DD06068012806D123
:101720004E48006800F4003090B90120CCE76068B2
:10173000022806D14948006800F0007040B9012035
:10174000C2E74648006800F0020008B90120BBE784
:101750004248406820F00300616808433F49486000
:10176000FFF7CEFB06466068012810D108E0FFF7BE
:10177000C7FB801B41F28831884201D90320A3E7CF
:101780003648406800F00C000428F0D123E060687F
:10179000022810D108E0FFF7B3FB801B41F288312B
:1017A000884201D903208FE72C48406800F00C00E4
:1017B0000828F0D10FE008E0FFF7A2FB801B41F200
:1017C0008831884201D903207EE72448406800F030
:1017D0000C000028F0D12048006800F00700A84263
:1017E0000ED91D48006820F0070028431A490860F8
:1017F0000846006800F00700A84201D0012063E716
:10180000207800F00400042807D11448406820F430
:10181000E060E168084311494860207800F0080062
:10182000082808D10D48406820F46050216940EA3A
:10183000C1000A49486000F02DF808494968C1F321
:101840000311074A515CC840064908600F20FFF7A2
:10185000BFFE002038E700000020024000100240D8
:10186000025A00080000002001480068704700008C
:101870000000002000B5FFF7F7FF04494968C1F3F5
:101880000221034A515CC84000BD00000010024024
:10189000125A0008F0B585B00FF26C0C9CE8E0100D
:1018A00001A8A0E8E0101CA52D68009500210022E9
:1018B000002300240020194D696801F00C05F5B1E2
:1018C000042D02D0082D19D101E0154819E001AD11
:1018D000C1F38346AC5D01F4803555B10F4D6D68A1
:1018E000C5F340451DF805200D4D6543B5FBF2F3EA
:1018F00002E00C4D04FB05F3184602E000BF084867
:1019000000BF00BF05B0F0BD0203040506070809CB
:101910000A0B0C0D0E0F1010010200000010024007
:1019200000127A0000093D00F8B504460025207831
:1019300000F00100002878D0F848406800F00C0062
:1019400004280CD0F548406800F00C00082811D19C
:10195000F248406800F48030B0F5803F0AD1EF488B
:10196000006800F4003000285FD0606800285CD177
:101970000120F8BD00BF6068B0F5803F06D1E748A0
:10198000006840F48030E549086028E0606858B994
:10199000E248006820F48030E049086008460068AA
:1019A00020F4802008601AE06068B0F5A02F0BD109
:1019B000DA48006840F48020D8490860084600688A
:1019C00040F4803008600AE0D448006820F4803099
:1019D000D24908600846006820F48020086000BFF3
:1019E000606888B1FFF78CFA054606E0FFF788FAD1
:1019F000401B642801D90320BBE7C848006800F4F5
:101A000000300028F2D010E0FFF77AFA054606E031
:101A1000FFF776FA401B642801D90320A9E7BF48E5
:101A2000006800F400300028F2D1207800F00200B5
:101A3000022857D1B948406800F00C0050B1B748AF
:101A4000406800F00C00082818D1B448406800F441
:101A5000803098B9B148006800F0020020B12069D8
:101A6000012801D0012084E7AC48006820F0F8008C
:101A7000616940EAC100A949086033E02069E8B122
:101A80000120A7490860FFF73BFA054606E0FFF78B
:101A900037FA401B022801D903206AE79F480068F3
:101AA00000F002000028F2D09C48006820F0F80006
:101AB000616940EAC1009949086013E00020984933
:101AC0000860FFF71DFA054606E0FFF719FA401B0C
:101AD000022801D903204CE79048006800F002007A
:101AE0000028F2D1207800F0080008282DD1A06944
:101AF000B8B101208B490860FFF702FA054606E0FD
:101B0000FFF7FEF9401B022801D9032031E7834883
:101B1000406A00F002000028F2D0012001F024FC0D
:101B200013E000207F490860FFF7EAF9054606E068
:101B3000FFF7E6F9401B022801D9032019E777488F
:101B4000406A00F002000028F2D1207800F0040082
:101B5000042873D100267148C06900F0805070B924
:101B600000BF6E48C06940F080506C49C8610846AB
:101B7000C06900F08050009000BF00BF01266A4895
:101B8000006800F48070B0B96748006840F4807065
:101B900065490860FFF7B4F9054606E0FFF7B0F9BC
:101BA000401B642801D90320E3E65F48006800F485
:101BB00080700028F2D000BFE068012806D15748A5
:101BC000006A40F001005549086227E0E06858B912
:101BD0005248006A20F00100504908620846006A35
:101BE00020F00400086219E0E06805280BD14B489A
:101BF000006A40F00400494908620846006A40F063
:101C0000010008620AE04548006A20F001004349EB
:101C100008620846006A20F00400086200BFE0681D
:101C2000A0B1FFF76DF9054609E0FFF769F9401B20
:101C300041F28831884202D903209AE622E03748EF
:101C4000006A00F002000028EFD012E0FFF758F918
:101C5000054608E0FFF754F9401B41F288318842FD
:101C600001D9032085E62D48006A00F00200002813
:101C7000F0D1012E05D12948C06920F080502749B4
:101C8000C86100BFE069C8B32448406800F00C0098
:101C9000082860D0E069022848D100202049086661
:101CA000FFF72EF9054606E0FFF72AF9401B022848
:101CB00001D903205DE61948006800F00070002893
:101CC000F2D1206AB0F5803F07D11448406820F473
:101CD0000030A168084311494860D4E9080108436D
:101CE0000E49496821F4741108430C4948600120E9
:101CF0000B490866FFF704F9054607E02DE0FFF7FA
:101D0000FFF8401B022801D9032032E6034800688F
:101D100000F000700028F2D01FE000000010024028
:101D200000004242800442420070004000200C4902
:101D30000866FFF7E5F8054606E0FFF7E1F8401B07
:101D4000022801D9032014E60648006800F000705C
:101D50000028F2D101E001200BE6002009E6000096
:101D6000000042420010024010B504460CB90120A8
:101D700010BDA06AB0F5005F00D100BF94F851001B
:101D800010B9204600F03AF8022084F8510020688B
:101D9000006820F0400021680860D4E90101084390
:101DA000E16808432169084361690843218B01F414
:101DB00000710843E1690843216A0843A16A0843A6
:101DC000216808600421A06901EA1040616A0843A3
:101DD000216848602168E06A08612068C06920F4D1
:101DE00000602168C8610020034908706065012017
:101DF00084F851000020BBE70D00002010B586B02C
:101E0000044614492068884222D100BF1248C069A4
:101E100040F480401049C8610846C06900F4804021
:101E2000019000BF00BF4FF42040029002200390B9
:101E30000320059002A90948FEF7CAFE4FF480402E
:101E4000029000200390049002A90448FEF7C0FE0F
:101E500006B010BD0038004000100240000C0140E8
:101E60002DE9FC4704460D4617461E46002001900A
:101E7000804681466068B0F5827F0DD1A06858B970
:101E8000042084F851003B462A4629462046009605
:101E900000F0FBF9BDE8FC8700BF94F85000012872
:101EA00001D10220F6E7012084F8500000BFFFF7BF
:101EB00027F8804694F85100012802D04FF002091B
:101EC000E9E005B117B94FF00109E4E0042084F816
:101ED000510000206065A563A787E7872063A0867F
:101EE000E08620646064A06AB0F5005F11D100BF95
:101EF000206800684DF6FF7108402168086020687E
:101F0000006840F400502168086000BFE08F401E68
:101F1000E087A068B0F5004F05D12068006820F484
:101F20008040216808602068006800F04000402878
:101F300005D02068006840F0400021680860E06833
:101F4000E8B918E02068806800F0010038B1206826
:101F5000007B28706D1CE08F401EE0870BE03EB1D7
:101F6000701C40B1FEF7CCFFA0EB0800B04202D3DA
:101F70004FF003098FE0E08F0028E3D11CE018E068
:101F80002068806800F0010038B12068C0682880AF
:101F9000AD1CE08F401EE0870BE03EB1701C40B1ED
:101FA000FEF7AEFFA0EB0800B04202D34FF00309EA
:101FB00071E0E08F0028E3D1A06AB0F5005F32D174
:101FC0002068006840F48050216808603346012290
:101FD00011462046CDF8008001F06BFA10B14FF0A9
:101FE000030958E0E068B0F5006F03D12068C068CD
:101FF000288002E02068007B2870334601221146C9
:102000002046CDF8008001F054FA30B1606D40F008
:10201000020060654FF003093DE02068C06880B2AF
:102020000190BDF804006068B0F5827F0DD1A06812
:10203000B0F5004F03D0A068B0F5806F05D12068DF
:10204000006820F040002168086020688068C0F3C4
:102050000010D8B1204601F029FA012812D1606D94
:1020600040F00200606500BF206800684DF6FF7117
:102070000840216808602068006840F4005021682A
:10208000086003E04FF6EF7021688860606D08B16A
:102090004FF0010900BF012084F8510000BF00206B
:1020A00084F8500000BF4846F4E62DE9F8430446A2
:1020B0000D4617461E464FF00008C14600BF94F873
:1020C0005000012802D10220BDE8F883012084F8E5
:1020D000500000BFFEF714FF804694F8510001281D
:1020E00002D04FF00209C6E005B117B94FF001095F
:1020F000C1E0032084F85100002060652563A786B5
:10210000E786A063A087E08760642064A068B0F5DC
:10211000004F05D12068006840F4804021680860C5
:10212000A06AB0F5005F0ED100BF206800684DF6D0
:10213000FF710840216808602068006840F4005082
:102140002168086000BF2068006800F04000402857
:1021500005D02068006840F0400021680860E06811
:10216000B0F5006F2AD1606810B1E08E012806D169
:1021700028882168C860AD1CE08E401EE08619E00A
:102180002068806800F00200022807D128882168B2
:10219000C860AD1CE08E401EE0860BE03EB1701CB6
:1021A00040B1FEF7ADFEA0EB0800B04202D34FF005
:1021B000030960E0E08E0028E2D129E0606810B1F8
:1021C000E08E012806D12878216808736D1CE08E06
:1021D000401EE08619E02068806800F002000228B6
:1021E00007D12878216808736D1CE08E401EE086B8
:1021F0000BE03EB1701C40B1FEF782FEA0EB080080
:10220000B04202D34FF0030935E0E08E0028E2D15E
:102210003346012202212046CDF8008001F049F921
:1022200010B14FF0030926E042463146204601F046
:1022300029F920B14FF00109202060651BE0A0685A
:1022400050B900BF002000902068C068009020684E
:102250008068009000BF00BFA06AB0F5005F05D1A4
:102260002068006840F4805021680860606D08B103
:102270004FF0010900BF012084F8510000BF002089
:1022800084F8500000BF48461EE72DE9FF5F044672
:102290000D4616461F46DDF838804FF0000A002034
:1022A0000390029081464FF0010B019000BF94F81B
:1022B0005000012803D1022004B0BDE8F09F0120A6
:1022C00084F8500000BFFEF71BFE814694F851A031
:1022D00060680390BAF1010F0BD00398B0F5827FCC
:1022E00004D1A06810B9BAF1040F02D00220019005
:1022F0003BE10DB106B117B90120019035E194F829
:102300005100012802D1052084F8510000206065A9
:10231000A663E787A7872563E786A78620646064AE
:10232000A06AB0F5005F0ED100BF206800684DF6CE
:10233000FF710840216808602068006840F4005080
:102340002168086000BF2068006800F04000402855
:1023500005D02068006840F0400021680860E0680F
:10236000B0F5006F4FD1606810B1E08E012806D142
:1023700028882168C860AD1CE08E401EE0863BE0E6
:10238000BBF1000F1CD0E08ED0B12068806800F057
:102390000200022814D128882168C860AD1CE08E94
:1023A000401EE0864FF0000BE08E48B9A06AB0F501
:1023B000005F05D12068006840F480502168086003
:1023C000E08F68B12068806800F0010040B12068AB
:1023D000C0683080B61CE08F401EE0874FF0010BD4
:1023E00008F1010040B1FEF78BFDA0EB090040456C
:1023F00002D303200190B8E0E08E0028C0D1E08F26
:102400000028BDD14EE0606810B1E08E012806D1F1
:102410002878216808736D1CE08E401EE0863BE042
:10242000BBF1000F1CD0E08ED0B12068806800F0B6
:102430000200022814D115F8010B21680873E08E00
:10244000401EE0864FF0000BE08E48B9A06AB0F560
:10245000005F05D12068006840F480502168086062
:10246000E08F68B12068806800F0010040B120680A
:10247000C06806F8010BE08F401EE0874FF0010BAB
:1024800008F1010040B1FEF73BFDA0EB090040451B
:1024900002D30320019068E0E08E0028C0D1E08FD5
:1024A0000028BDD1A06AB0F5005F15D143460122D6
:1024B00011462046CDF8009000F0FBFF30B1606D72
:1024C00040F002006065032001904EE02068C06883
:1024D00080B20290BDF8080020688068C0F3001048
:1024E000F0B1204600F0E2FF012815D1606D40F008
:1024F0000200606500BF206800684DF6FF7108406B
:10250000216808602068006840F400502168086075
:1025100000BF0120019003E04FF6EF702168886052
:102520004346012202212046CDF8009000F0C1FF71
:1025300010B10320019018E04A464146204600F0C1
:10254000A1FF20B101200190202060650DE0A0686E
:1025500050B900BF002000902068C068009020683B
:102560008068009000BF00BF00BF012084F85100C8
:1025700000BF002084F8500000BF01989CE60428AA
:1025800008D14FF0E021096941F004014FF0E02249
:10259000116107E04FF0E021096921F004014FF0DB
:1025A000E02211617047704770B504462546681EE9
:1025B000B0F1807F01D301200FE0681E4FF0E021D1
:1025C00048610F214FF0FF3000F0BAFE00204FF0BD
:1025D000E021886107200861002070BD10B5FFF779
:1025E000E2FF10BD024600BF92F83C00012801D175
:1025F00002207047012082F83C0000BF022082F8D0
:102600003D001068406820F0700013685860106842
:1026100040680B681843136858601068806820F0A1
:10262000800013689860106880684B6818431368CE
:102630009860012082F83D0000BF002082F83C0035
:1026400000BF00BFD5E7000010B586B0044600BF4C
:102650000D48806940F004000B4988610846806994
:1026600000F00400019000BF00BF2068B0F1804F6F
:1026700008D10F20029002200390059002A9034880
:10268000FEF7A6FA06B010BD001002400008014097
:1026900070B504460D46164600BF94F83C0001286C
:1026A00001D1022070BD012084F83C0000BF02204F
:1026B00084F83D0036B1042E1BD0082E31D00C2EEC
:1026C0005ED145E02946206801F092F820688069D3
:1026D00040F00800216888612068806920F00400CB
:1026E00021688861206880692969084321688861B8
:1026F00047E02946206801F0ADF82068806940F481
:102700000060216888612068806920F48060216809
:10271000886120688069296940EA01202168886110
:102720002FE02946206801F0CDF82068C06940F00C
:1027300008002168C8612068C06920F00400216891
:10274000C8612068C069296908432168C86118E028
:102750002946206801F0ECF82068C06940F4006068
:102760002168C8612068C06920F480602168C86160
:102770002068C069296940EA01202168C86100E039
:1027800000BF00BF012084F83D0000BF002084F896
:102790003C0000BF00BF85E710B504460CB901201E
:1027A00010BD94F83D0028B9002084F83C00204674
:1027B00000F00CF8022084F83D00211D206800F094
:1027C000CFFF012084F83D000020E9E708B501684B
:1027D000B1F1804F0DD100BF0649C96941F0010137
:1027E000044AD1611146C96901F00101009100BF9D
:1027F00000BF08BD0010024030B504460D4601225E
:102800002946206800F0E6FF0A492068884201D185
:10281000012000E0002028B12068406C40F4004016
:10282000216848642068006840F001002168086061
:10283000002030BD002C014000BFFEE710B50C4861
:102840000C4908600C48486000210A488160C1605A
:102850004FF480410161002141618161C1610162E8
:10286000FEF754FB18B1182104A001F089F810BD3F
:102870000054004044000020A086010050657269A9
:1028800070686572616C735C536F757263655C69C7
:1028900032632E6300000000F8B504460D4616466C
:1028A000642033462A46214600900548FEF7ECFB9B
:1028B00007461FB13F2103A001F062F8F8BD0000F8
:1028C000440000205065726970686572616C735CC9
:1028D000536F757263655C6932632E63000000009C
:1028E0002DE9FE4304460D4616461F46642001238B
:1028F0002A462146CDE9006702900648FEF762FDB0
:102900008046B8F1000F03D04B2103A001F038F846
:10291000BDE8FE83440000205065726970686572EE
:10292000616C735C536F757263655C6932632E63AF
:1029300000000000014608684069C0F3802088B1AB
:102940006FF480600A685061042008640020086306
:10295000202081F83D0000BF002081F83C0000BF2E
:10296000012070470020FCE72DE9F84304460D469E
:1029700090461E46E76A2068006840F4806021683F
:102980000860042F04D0012F02D017F5803F06D134
:102990002068006840F480702168086008E0206BBF
:1029A000112805D12068006840F480702168086013
:1029B000434600224FF001112046009600F007F92F
:1029C00010B10320BDE8F8832069B0F5804F05D130
:1029D000E8B240F001002168086149E005F4407068
:1029E000F02141EAE0102168086133464246294956
:1029F000204600F02AF930B1206C042801D10120D2
:102A0000E0E70320DEE7E8B221680861334642468A
:102A10002049891F204600F018F930B1206C0428A5
:102A200001D10120CEE70320CCE700BF00200090B9
:102A300020684069009020688069009000BF00BF56
:102A40002068006840F480702168086043460022D6
:102A50004FF001112046009600F0B9F808B10320AC
:102A6000B0E705F44070F12141EAE0102168086107
:102A7000334642460749891F204600F0E6F830B148
:102A8000206C042801D101209CE703209AE7002054
:102A900098E70000080001002DE9F8430446884645
:102AA00015469946DDE908672068006840F48070A3
:102AB00021680860334600224FF00111204600973C
:102AC00000F085F810B10320BDE8F88308F0FE009F
:102AD000216808613B4632462649204600F0B5F899
:102AE00030B1206C042801D10120EDE70320EBE791
:102AF00000BF002000902068406900902068806935
:102B0000009000BF00BF3A463146204600F02AF947
:102B100060B1206C042807D12068006840F4007080
:102B2000216808600120CFE70320CDE7B9F1010F4C
:102B300003D1E8B22168086119E0C5F307202168D4
:102B400008613A463146204600F00CF960B1206C2D
:102B5000042807D12068006840F4007021680860EC
:102B60000120B1E70320AFE7E8B221680861002047
:102B7000AAE700000200010070B504460D461646A3
:102B80001DE02046FFF7D6FE08B1012070BD681C8D
:102B9000A8B125B1FEF7B4F9801BA8420FD9206C6B
:102BA00040F02000206400202063202084F83D00B5
:102BB00000BF002084F83C0000BF0320E6E7206847
:102BC0004069C0F380000028DBD00020DEE72DE95B
:102BD000F04104460D4617461E46DDF8188017E002
:102BE000701CA8B12EB1FEF78BF9A0EB0800B04223
:102BF0000ED900202063202084F83D00002084F8B6
:102C00003E0000BF84F83C0000BF0320BDE8F08117
:102C1000C5F3074001280AD120684069A9B20840DD
:102C2000A9B2884201D101200BE0002009E0206810
:102C30008069A9B20840A9B2884201D1012000E010
:102C40000020B842CCD00020E0E72DE9F041044656
:102C50000D4616461F4631E020684069C0F38020CB
:102C6000C0B12068006840F40070216808606FF40B
:102C700080602168486104202064002020632020B7
:102C800084F83D0000BF002084F83C0000BF012014
:102C9000BDE8F081701C88B126B1FEF731F9C01B88
:102CA000B0420BD900202063202084F83D0000BFF3
:102CB000002084F83C0000BF0320E9E7C5F307408B
:102CC00001280AD120684069A9B20840A9B2884207
:102CD00001D101200BE0002009E020688069A9B241
:102CE0000840A9B2884201D1012000E0002000285C
:102CF000B2D00020CCE770B504460D46164629E058
:102D000020684069C0F3001080B16FF010002168A6
:102D10004861002020642063202084F83D0000BF2B
:102D2000002084F83C0000BF012070BD25B1FEF7F3
:102D3000E7F8801BA8420DD9206C40F020002064E9
:102D4000202084F83D0000BF002084F83C0000BF34
:102D50000320EAE720684069C0F380100028CFD044
:102D60000020E2E770B504460D4616461DE02046F9
:102D7000FFF7E0FD08B1012070BD681CA8B125B1C6
:102D8000FEF7BEF8801BA8420FD9206C40F020004F
:102D9000206400202063202084F83D0000BF002034
:102DA00084F83C0000BF0320E6E720684069C0F3D8
:102DB000C0100028DBD00020DEE700002DE9F04144
:102DC00004460D461746002609E021460948FEF74D
:102DD0008DF84FF4FA70FDF7E3FE701CC6B2680080
:102DE000B042F2DC3A4621460248FEF783F8BDE8DD
:102DF000F0810000000C014000B585B0002240F2D7
:102E000006311248FEF776F800BF1148806940F09D
:102E100008000F4988610846806900F008000090AA
:102E200000BF00BF40F20630019001200290002058
:102E300003900220049001A90448FDF7C9FE012176
:102E400040F2063000F006F805B000BD000C01406D
:102E50000010024070B504460D462A46214602483D
:102E6000FEF748F870BD0000000C014070B586B058
:102E70004FF47A75642418216846FDF73EFA00265F
:102E800006E000F0ABF80220FDF78AFE701C86B267
:102E9000A642F6DB002630E000F0A0F831490098A9
:102EA0000968B1F90010084400902E49019809689A
:102EB000B1F90210084401902A4902980968B1F951
:102EC000041008440290274903980968B1F90610D4
:102ED00008440390234904980968B1F9081008448C
:102EE0000490204905980968B1F90A100844059032
:102EF0000220FDF755FE701C86B2281BB042CBDCC9
:102F0000291B009890FBF1F000B21749096808806E
:102F1000291B019890FBF1F000B213490968488021
:102F2000291B029890FBF1F000B20F4909688880D4
:102F3000291B039890FBF1F000B20B490968C88087
:102F4000291B049890FBF1F000B207490968088139
:102F5000291B059890FBF1F000B2034909684881EC
:102F600006B070BD100000201400002010B504460B
:102F700000F034F8034801682160416861608068AE
:102F8000A06010BD3001002003490A6802604A6851
:102F900042608968816070473C01002070B5D0258F
:102FA000FFF74CFC00240FE00A20FDF7F9FD0A486A
:102FB00000EB8400821C084830F8241001232846C6
:102FC000FFF78EFC601CC4B2062CEDDB0A20FDF777
:102FD000E7FDFFF74BFF70BD1A5A00082DE9FF41CE
:102FE0004FF0030802AFD02400231A463B212046AD
:102FF000FFF776FC641C062239462046FFF74CFC9E
:103000006F46D02400231A4643212046FFF768FC70
:10301000641C062239462046FFF73EFC00201FE0D4
:10302000012101EB400102AA515C12F8102041EA93
:10303000022529B20C4A126822F81010012101EB76
:1030400040011DF801101DF8102041EA022631B29E
:10305000054A126802EB400222F81810411CC8B25F
:103060000328DDDBBDE8FF81100000202DE9F047DB
:1030700086B082464FF0000924E05AF8290002F099
:1030800031F907460022144B01F042FC05460022AC
:10309000124B01F017FECDE9000101F091FD04464D
:1030A000002C01DA002006E0B4F5616F02DB40F687
:1030B0000F6000E0204602A941F8290009F1010053
:1030C00000F0FF09B9F1040FD7DB02A800F03CFBC8
:1030D00006B0BDE8F087000000005940001FBC406A
:1030E00010B500F0B9FA10BD0122002005E0074B31
:1030F0001B5C0B44D9B2431CD8B21F28F7DB034832
:10310000C07F884200D0002210467047480100204E
:1031100070B505462024224604492846FDF754F898
:1031200021460248FDF7C7F870BD000048010020A5
:1031300010B500F01DF800F02BF900224FF40061EB
:103140000948FDF7D7FE012211030848FDF7D2FE1A
:1031500000F068F802E00A20FDF722FD00F0A6F872
:103160000028F8D010BD000000080140000C01400C
:1031700000B585B000BF2848806940F004002649AA
:1031800088610846806900F00400009000BF00BF1D
:1031900000BF0846806940F00800886108468069E1
:1031A00000F00800009000BF00BFC814019001208B
:1031B0000290002003900320049001A91748FDF716
:1031C00007FD4FF4805001900120029000200390F1
:1031D0000320049001A91248FDF7FAFC4FF4807017
:1031E000019000200290012003900320049001A987
:1031F0000A48FDF7EDFC012211020848FDF77AFEAE
:103200000122D1020548FDF775FE01221103044891
:10321000FDF770FE05B000BD00100240000801403F
:10322000000C014010B500224FF400610E48FDF77C
:1032300061FE05220D490A2000F05CF800240BE035
:103240000B4A02EB4402511C094A12F814000122F5
:1032500000F050F8601CC4B2062CF1DB0122D10250
:103260000148FDF747FE10BD00080140375A00082D
:103270003C5A0008F8B504460D461646E0B20090E8
:1032800000224FF480510848FDF734FE01216846C2
:1032900000F0D8F83146284600F0B4F801221103B6
:1032A0000148FDF727FEF8BD000C01401CB50124C4
:1032B000FF200090012201A90720FFF7DBFF012278
:1032C00001A9072000F016F89DF8040000F0400066
:1032D00050B1202206496120FFF7CCFF0122694648
:1032E000C22000F007F800E0002420461CBD0000CA
:1032F00048010020F8B506460C46154606F12000A8
:10330000C0B2009000224FF480510848FDF7F2FD52
:103310000121684600F096F82946204600F092F810
:10332000012211030148FDF7E5FDF8BD000C014045
:1033300002480068C0F30220704700000CED00E076
:1033400010B5002807DA0A07140E054A00F00F032B
:103350001B1FD45403E00A07130E024A135410BD76
:1033600018ED00E000E400E008B508490968C90864
:103370004FF47A72B1FBF2F14143009100BF00BFFC
:1033800000994A1E00920029F9D108BD00000020D2
:1033900010B51348134908604FF48270486000214B
:1033A00010488160C160016141614FF40071816129
:1033B0001021C16100210162416281620A21C16262
:1033C000FEF7D2FC18B1182107A000F0D9FA054881
:1033D0000068006840F0400002490968086010BDBC
:1033E000003800409800002050657269706865726E
:1033F000616C735C536F757263655C7370692E6387
:103400000000000070B504460D4664232A4621469C
:103410000448FEF725FD06461EB14F2102A000F02C
:10342000AFFA70BD980000205065726970686572CF
:10343000616C735C536F757263655C7370692E6346
:103440000000000070B504460D4664232A4621465C
:103450000448FEF72AFE06461EB1442102A000F0F1
:103460008FFA70BD980000205065726970686572AF
:10347000616C735C536F757263655C7370692E6306
:1034800000000000F8B504460D4616462B46002203
:1034900080212046009600F00CF828B1606D40F0C5
:1034A000200060650320F8BD0020FCE701460120F4
:1034B00070472DE9F04104460E4617461D46DDF8DB
:1034C00018803FE0681CE0B32DB1FDF719FDA0EBBB
:1034D0000800A84236D32068406820F0E000216848
:1034E00048606068B0F5827F0DD1A068B0F5004FEC
:1034F00003D0A068B0F5806F05D12068006820F087
:10350000400021680860A06AB0F5005F0ED100BFDE
:10351000206800684DF6FF71084021680860206847
:10352000006840F400502168086000BF012084F862
:10353000510000BF002084F8500000BF0320BDE808
:10354000F081FFE7206880683040B04201D101205F
:1035500000E00020B842B5D10020F0E710B5FEF73A
:103560002BF8FFF73BF810BD1148006840F0010050
:103570000F490860084640680E4908400C494860F9
:10358000084600680C490840094908600846006878
:1035900020F4802008600846406820F4FE0048605F
:1035A0004FF41F008860C80304490860704700009A
:1035B000001002400000FFF8FFFFF6FE08ED00E0FB
:1035C00010B590B0012006900004079000200890EC
:1035D00001200A9002200D90C1030E914FF4E011DA
:1035E0000F9106A8FEF7A0F918B11A2114A000F057
:1035F000C7F90F20019002200290002003904FF4A1
:103600008060049000200590022101A8FEF744F894
:1036100018B129210AA000F0B3F9FEF725F94FF4FB
:103620007A71B0FBF1F42046FEF7BEFF0420FEF7EE
:10363000A6FF00221146501EFDF7F0FF10B010BD8E
:10364000557365725C536F757263655C73797374DF
:10365000656D2E630000000000B589B04FF080401A
:10366000314908600020486000212F48816041F600
:103670001F41C160002101618161FFF78DF818B120
:1036800016212AA000F07CF900200790089007A9D5
:103690002548FEF7A7FF18B11D2124A000F070F9FE
:1036A0006020009000200190029004900022694662
:1036B0001D48FEF7EDFF18B126211CA000F060F9AF
:1036C000042269461848FEF7E3FF18B12B2117A022
:1036D00000F056F9082269461348FEF7D9FF18B1E1
:1036E000302112A000F04CF90C2269460E48FEF77A
:1036F000CFFF18B135210DA000F042F90A48FEF7BE
:10370000A3FF00210848FFF777F804210648FFF7D8
:1037100073F808210448FFF76FF80C210248FFF7FF
:103720006BF809B000BD0000F00000205065726920
:1037300070686572616C735C536F757263655C74FD
:10374000696D6572322E63004FF0804201685163EB
:10375000416891638168D163C1681164704700005A
:1037600000220268184B984208D0B0F1804F05D073
:10377000164B984202D0164B984203D122F07002A9
:103780004B681A43104B984208D0B0F1804F05D0D7
:103790000E4B984202D00E4B984203D122F4407255
:1037A000CB681A4322F080024B691A4302608B688F
:1037B000C3620B688362044B984201D10B690363B7
:1037C0000123436170470000002C014000040040C9
:1037D0000008004030B50023012404FA01F3046A14
:1037E0009C430462046A02FA01F52C43046230BD72
:1037F00030B5002400220023056A25F0010505628A
:10380000026A4368846924F0700424F003040D689C
:103810002C4322F002028D682A430D4DA84206D1A6
:1038200000BF22F00802CD682A4322F00402084DAE
:10383000A84207D123F4807323F400734D692B430E
:103840008D692B43436084614D684563026230BDDE
:10385000002C014030B5002400220023056A25F029
:1038600010050562026A4368846924F4E04424F484
:1038700040740D6844EA052422F020028D6842EA73
:1038800005120F4DA84207D100BF22F08002CD687B
:1038900042EA051222F04002094DA84209D123F460
:1038A000806323F400634D6943EA85038D6943EA2D
:1038B0008503436084614D688563026230BD00000A
:1038C000002C014030B5002400220023056A25F4B5
:1038D00080750562026A4368C46924F0700424F0AC
:1038E00003040D682C4322F400728D6842EA05221D
:1038F0000E4DA84207D100BF22F40062CD6842EA13
:10390000052222F48062094DA84209D123F4805394
:1039100023F400534D6943EA05138D6943EA051307
:103920004360C4614D68C563026230BD002C014034
:1039300030B5002200230024056A25F48055056275
:10394000036A4468C26922F4E04222F440720D68BE
:1039500042EA052223F400538D6843EA0533074DFC
:10396000A84204D124F480444D6944EA851444609B
:10397000C2614D680564036230BD0000002C014047
:1039800000BFFEE7490050EAC12018BF04204A0DDD
:1039900018BF40F0010040F2FF72B2EB515F08BF68
:1039A00040F00200012808BF052070472DE9F041D2
:1039B0004F1E00EBC7010446D1E9000115461E4623
:1039C00037F006020DD02A46334601F07BF97F1E00
:1039D00004EBC703D3E9002300F0DEFE37F0060254
:1039E000F1D1022F25D0042F13D0062F18BFBDE828
:1039F000F0812A46334601F065F9D4E90A2300F044
:103A0000CBFE2A46334601F05DF9D4E9082300F0E5
:103A1000C3FE2A46334601F055F9D4E9062300F0E7
:103A2000BBFE2A46334601F04DF9D4E9042300F0E9
:103A3000B3FE2A46334601F045F9D4E9022300F0EB
:103A4000ABFE2A46334601F03DF9D4E90023BDE838
:103A5000F04100F0A1BE00000022134610460149CB
:103A600000F056BF0000F03F012201F084BF00F0DB
:103A700093BE002213461046114600F049BF40F2A3
:103A8000013200204FF0E04101F075BF024A0020F2
:103A9000110701F070BF000001FDFFFF2DE9F84F95
:103AA00004460D4621F0004000917349814211DC2B
:103AB0007249884201DC06D12CB120462946BDE876
:103AC000F84FFFF7D1BF6E48002DCCBF6D496E494E
:103AD000BDE8F88F6D49814211DD6D498142D8BF43
:103AE0004FF0FF366DDD20462946FFF74BFF0428D7
:103AF00008BFFFF7CBFF20462946BDE8F88F654990
:103B0000654F25F00045814233DD6449814219DD6E
:103B1000002632464FF080432046294600F03CFE06
:103B200080468A4601222046294601F024FF0022D1
:103B30003B4601F0EDFA4246534600F0E9FE0446EA
:103B40000D463EE001260022BA463B462046294665
:103B500000F022FE80460F460022534620462946AA
:103B600001F0D6FA42463B4600F0D2FE04460D462E
:103B700027E04B4981421BDDDFF828A10226002205
:103B800053462046294601F09DF800223B4600F0AE
:103B900003FE80460F46002253462046294601F088
:103BA000B7FA42463B4600F0B3FE04460D4608E035
:103BB000032622462B4600203B4900F0A9FE04467E
:103BC0000D4622462B461046194601F07BF88B46DF
:103BD000824602460B4601F075F807460246334816
:103BE00088460B4606217844FFF7E0FE52465B46C6
:103BF00001F068F882462E488B463A464346052136
:103C00007844FFF7D3FE3A46434601F05BF802469C
:103C10000B46002E504659460CDA00F0BDFD2246F8
:103C20002B4601F04FF801B022462B46BDE8F04F7D
:103C300001F07CB900F0B0FD22462B4601F042F8BD
:103C40001C4A7A4402EBC603D3E9002301F060FA70
:103C500022462B4601F05CFA174A7A4402EBC6036F
:103C6000D3E9002301F062F9009A002AB8BF81F07D
:103C70000041BDE8F88F0000000010440000F07F14
:103C8000182D4454FB21F93FFB21F9BF0000DC3F14
:103C90000000203E0000F33F0000F03F0000E63F40
:103CA000008003400000F83F0000F0BFC61E000087
:103CB000841E0000221E0000EA1D0000FFF780FCA9
:103CC000FFF79AF8FFF76AF9FFF70AFAFCF72EFDFB
:103CD000FCF786FBFFF72CFA0122114640F2063072
:103CE000FFF76CF86420FCF75BFF0FE0FFF7DEFAEC
:103CF000FFF7FAF938B1FCF7F7FCFCF771FBFCF7BA
:103D0000EFFDFCF793FE0520FCF74AFFEEE700000D
:103D10002DE9F04D1D460C4698B0174621F00041A4
:103D200023F00043002814BF4FF0010C4FF0000CAB
:103D30000CEB440CFE4A0CEB02064FEA620C6645A3
:103D40002BD33E0018BF012606EB45061644F94A60
:103D5000964222D3F84A53EA070C02D0944205D186
:103D600048B918B000201146BDE8F08D002808BF02
:103D70004FF0000C01D04FF0010C0CEB440212F597
:103D8000001F0AD8002F14BF4FF0010C4FF0000C99
:103D90000CEB450212F5001F07D918B03A462B4626
:103DA0002146BDE8F04DFFF762BE0022DFF88CA38C
:103DB000002CB8BF534526DADFF884C36345A8BF9B
:103DC000022220DADFF870C39C451CDCDFF874C3E4
:103DD0000CEB235CBCF1140F08DDCCF1340627FAA0
:103DE00006FC0CFA06F6BE420DD108E05FB9CCF134
:103DF000140623FA06FC0CFA06F69E4203D10CF0D8
:103E00000102C2F1020251EA000C19D1002D17DAA9
:103E1000002C18BF022A01D0012A07D00220FCF78B
:103E20009BFA18B0BDE8F04DFFF716BE0220FCF774
:103E300093FAFFF711FE18B081F00041BDE8F08D54
:103E4000B7F1000C6CD1534525D104F1804212F535
:103E5000801201BF00280020B74918B008BFBDE894
:103E6000F08DB548884207DC002DA1BF6046294689
:103E700018B0BDE8F08D07E0281E05DA80F000419B
:103E800018B06046BDE8F08DAF497944D1E9000132
:103E900018B0BDE8F08DDFF8A0C2634525D1002D34
:103EA0001FDA19B1514512D1D8B909E0002840F004
:103EB000EC82A24A214618B062F31E01BDE8F08DE3
:103EC0000020214618B060F31E01BDE8F08D08DA2D
:103ED00018B02346BDE8F04D02460020614600F0D0
:103EE00017BD18B02146BDE8F08D514518DAB5F17F
:103EF000804F0DD0A5F1005CBCF1FF5C10D1B4F196
:103F0000000C0DDB18B06146BDE8F04D00F0ECBBD5
:103F1000234618B00246BDE8F04D194600F0D2BE67
:103F2000060024F0004C3BD1D9B1514533D1002CCF
:103F300006DD002DA1BF0020514618B0BDE8F08D70
:103F4000002C01DD002D1BDB002C13DA002D11DB12
:103F5000012A4FF0000014BF78497C4918B0BDE831
:103F6000F08D022A18BF002C0AD0012A08D1002C9B
:103F700006DA0AE0002CB8BF002D11DA012A04D0BD
:103F8000002018B00146BDE8F08D18B000204FF0B9
:103F90000041BDE8F08DA1F14050B0F17F601AD032
:103FA000012000EBE47050EA020421D0624C521E62
:103FB0004FF0000B104304BF4FF0000B644C6548FA
:103FC00083427CDD644A654893421FDD884217DBEB
:103FD000002D25DB37E0002C00DA4AB1022A0CBFA5
:103FE00001204FF0FF3018B0BDE8F04D00F017BED3
:103FF0000120FCF7B1F918B0BDE8F04DFFF739BD6D
:104000004D4A8A4202DC002D0ADC1CE0814202DAC1
:10401000002D18DA04E0484B994220DD002D12DD16
:104020000220FCF799F9FFF72AFD05460E4600220B
:1040300053465846214600F045FE18B066F31E016F
:104040002846BDE8F08D0220FCF786F9FFF71EFD3B
:104050000A46214618B062F31E01BDE8F08D002229
:104060003046614601F054F880460E466FF001027A
:1040700001F081FC4FF05532394B00F057FF4246BA
:10408000334600F01FFE0022364B00F04FFF824601
:104090004246334604911046194600F013FE52463C
:1040A000049B00F00FFE8A4600904FF0C0422E4B5A
:1040B0004046314600F006FE2C4A2B4B00E027E03C
:1040C000CDE906015146009800F0FCFD82460191C1
:1040D000274A284B4046314600F0F4FD5246019BEA
:1040E00001F016F882460B4602460591DDE906010D
:1040F00000F052FBDDE9062300268846304601F039
:1041000007F85246059B00F011FF024600F07EB909
:104110000020B1F5801F07DA35223046614601F0F4
:104120002AFC06466FF0340000EB215024E000002A
:10413000FFFF1F00FFFF0F000000F03F0000F07FB7
:104140000000404301FCFFFFDA1C00000000F0FF0C
:104150000000F0BF0000E0410000F043FFFFEF3F30
:104160005555D53F0000E03F4715F73FFE822B65D0
:1041700044DF5DF80BAE543EA0F2FF300190C1F376
:10418000130040F07F6141F040510291FE498842A6
:10419000D8BF002004DDFD498142C8BF012001DDF8
:1041A0000D9008E000200D900198401C01900298AD
:1041B000A0F5801002900299F54878440B910D9972
:1041C00000EBC100D0E900230F9330460A920B990F
:1041D00000F09EFFCDE90601DDE90A2130460F9B84
:1041E00000F0DAFA02460B460020EA4900F090FBA4
:1041F000059102460B460090DDE9060100F062FDE4
:104200001490E5488A464FF0000878440299006807
:1042100012904FF0005040EA61010D980F9B01EBA6
:10422000804000F5002109910A9A129800F070FF71
:1042300032460B9B00F07AFE4246534600F042FDA8
:104240000646029140465146099B129A00F03AFDFB
:10425000DDE9062300F06AFE3246029B00F058FFBB
:10426000059B009A00F02EFD0091149A049053468D
:104270001046194600F026FD06460246C7480B4682
:10428000029106217844FFF791FBCDE90510029BCE
:1042900032461046194600F015FDDDE9053200F002
:1042A00011FD05910646534640461946149A00F002
:1042B00073FA009B049A00F005FD3246059B00F05E
:1042C0006BFACDE90510424653461046194600F0F8
:1042D000F9FC0022B24B02910A9000F05DFADDE990
:1042E000053200F059FA0E464246AD4B404600F00A
:1042F0000FFF029B0A9A00F00BFFDDE9053200F088
:1043000015FE424602910A9033461046514600F08F
:10431000D9FCCDE906015346149A02990A9800F097
:10432000D1FC8A460290334642460099049800F038
:10433000C9FC5346029A00F02FFA82460B46024609
:104340000591DDE9060100F027FADDE906230020EA
:104350008846064600F0DCFE5246059B00F0E6FD6E
:10436000824609914FF060428E4B3046414600F044
:10437000A9FC049006918C4A8A4B5046099900F09A
:10438000A1FC82460291894A894B3046414600F0A1
:1043900099FC5246029B00F0FFF9864B7B440D9A34
:1043A00003EBC203D3E9002300F0F6F90E90079166
:1043B000019800F034FC0591DDE9061382460E9A5F
:1043C000049800F0E9F97C4A7A440D9B02EBC303A0
:1043D000D3E900230093029200F0DEF95246059BD8
:1043E00000F0DAF90026884652463046059B00F078
:1043F0008FFE009B029A00F08BFE069B049A00F051
:1044000087FE079B0E9A00F091FD024600200B46A6
:1044100002903846294600F055FC824601912B4611
:1044200038461946029A00F073FE3246434600F0C1
:1044300049FC5246019B00F0AFF907468A463246D6
:1044400043462946029800F03DFC05460E463A4692
:10445000534600F0A1F9594A8846914221DBA8EB66
:10446000020353EA000210D12A46334600F050FE00
:10447000CDE90401524A534B3846514600F08CF9BD
:10448000DDE9042300F01CFD21D20220FBF764FFCC
:10449000FFF7F5FA0A46214618B062F31E01BDE89F
:1044A000F08D494B28F000429A4210D3474A08EB5E
:1044B000020353EA00027FF4C6AD2A46334600F0F9
:1044C00027FE3A46534600F0FBFC7FF6BCAD0022C7
:1044D000019228F000403E493E4A01EB20518242C1
:1044E00023DA481C4FF4801121FA00F040443A4A84
:1044F000C0F30A517A44394BA1F2FF31CB4020EA94
:104500000303C0F3130040F48010C1F11401C8404C
:1045100012680190B8F1000FBCBF404201902846DC
:10452000314600F0F5FD05460E462A46334638462C
:10453000514600F031F94FF000084246284B404602
:10454000059100F0BFFBCDE90601264A264B404607
:10455000059900F0B7FB009102902A463346404689
:10456000059900F0D5FD3A46534600F0DFFC1F4A9E
:104570001F4B00F0A7FB009B029A00F00DF90746C5
:10458000884602460B4635E08E9803007AB60B004B
:10459000221900000000F03F5A190000881800009E
:1045A0000000084009C7EE3FFD033ADCF5015B144B
:1045B000E02F3EBE6017000024170000000090406E
:1045C000FE822B654715973C00CC904000346F3F2E
:1045D00001FCFFFF0000E03F70160000FFFF0F002E
:1045E000432EE63F396CA80C615C20BEEF39FAFE21
:1045F000422EE63FDDE9060100F0CEF8DDE90623B4
:1046000005460E4600F084FD3A46434600F08EFC17
:104610000F462A46334600901046194600F052FBDA
:10462000824602462E4888460B4605217844FFF70D
:10463000BDF95246434600F045FB2A46334600F09A
:1046400075FC80468A463B4628463146009A00F073
:1046500039FB3B46009A00F09FF80691009000223B
:104660004FF080434046514600F052FD0F460C90FB
:10467000424653462846314600F024FB3B460C9AFE
:1046800000F046F9069B009A00F042FD2A463346A8
:1046900000F03EFD0022134B00F048FC0546019857
:1046A0000E4601EB00510815002810DC2846314663
:1046B000019A01F060F9FFF765F9042808BFFFF7D8
:1046C000E5F928463146019A01F055F905460B46B1
:1046D00018B02A4658462146BDE8F04D00F0F2BA1F
:1046E000101500000000F03F2DE9F04106460F468E
:1046F00000F028FC041E0D4618BF0120284320F0BE
:104700000040C0F17F6000F1E040C00F0ED0301CCF
:1047100018BF0120384320F00040C0F17F6000F155
:10472000E040C00F04BF0120FBF716FE20462946DB
:10473000BDE8F08121F00042A2F16052B2F5801F85
:1047400001F0004328BFD2F17F6C0BD95FEA001C57
:1047500043EAC20242EB507018BF704728BF20F0F6
:1047600001007047B2F5801FBCBF184670474FEA82
:10477000410C1CF5001F02D2084601F01EB870B5AE
:1047800000F04AFB00000089FFF7F6BF4FF0004041
:10479000A0F580007047000010B591EA030F48BFF4
:1047A00083F0004300F1BC84841A71EB030C05D242
:1047B000121943EB0C03001B61EB0C01DFF824E141
:1047C0004FEA1154A4EB135C1EEA430F18BF9EEA94
:1047D000445F73D023EA0E03DCF1200E21EA04517A
:1047E00043F4801332D322FA0CFE10EB0E0023FAAE
:1047F0000CFE41EB0E01CCF1200E03FA0EFE10EB85
:104800000E0051F10001B1F5801FCCF1200E32D223
:1048100001EB045112FA0EF2BDE8104058BF704788
:10482000401C38BF5FEA420218BF7047002814BF1F
:1048300020F0010041F100014FEA410313F5001F90
:1048400038BF7047A1F1C04100F034BB012A43EBEF
:104850000302ACF1200CDCF11F0E32BF4FF0000E52
:1048600023FA0CF310EB030041EB0451B4EB115F9E
:10487000D0D0A1EB045101F5801149085FEA300066
:1048800001EB04510ED350F1000038BF12FA0EFEB6
:1048900008D1BDE81040C9E7401C38BF5FEA4202BA
:1048A000CAD1C3E7BDE810404FEA410313F5001F2A
:1048B00038BF7047A1F1C04100F0FCBA9EEA445FE6
:1048C00008D011EA5E0FBDE8104004BF01F00041BE
:1048D00000207047BDE8104070B500F09DFA00BFA1
:1048E00064FBBE3E0000E0FF02494FF0000001F013
:1048F00010B800BF0000F87F491058BFC1F1404117
:104900005B1058BFC3F140438B42EFF30080704708
:104910002DE9C04130B4DFF8A0C23CEA111418BF41
:104920003CEA131400F0EC8081EA03051CEA111440
:1049300044EAD57418BF1CEA131500F0C780A4EB35
:1049400005044FF0004545EAC12145EAC32341EA89
:10495000505143EA525304F17F74994204F50034F4
:104960004FEAC0204FEAC22208BF904200F09C806C
:104970004FEA13650FF24016765D4FEA134506FBCA
:1049800005F7C7F1807706FB07F74FEAD737A7FB94
:1049900003687642C8F58038A7FB06CE38BFA8F179
:1049A000010807FB08E64FF0000EA6FB028CE6FBB1
:1049B00003CEDCF1000CCEF1004E38BFAEF1010E9B
:1049C000A6FB0C584FF000074FF00005E6FB0E87E2
:1049D000A1FB08C6A0FB07CE16EB0E0645F10005AD
:1049E000E1FB076515F1E04E7EBFA4F580345FEA78
:1049F00046066D4116F1800745F100054FEA17277D
:104A00004FEA066647EA0567A6F1DE46B6F1805F23
:104A10004FEA15251FD9384624F0010C05EBC47167
:104A2000BCF1FE6F01EB0C1102D8F0BCBDE80081B7
:104A300024425CBF01F5801E9EEAC47F02D4F0BC14
:104A4000BDE80081244238D4F0BCA1F1C041BDE8EA
:104A5000004100F02FBA4FEAD22242EA43524FEA15
:104A6000D323A7FB02864FEAD02040EA415007FB40
:104A700003661EEA0E0F4FEAD12105FB026658BFFE
:104A8000A6EB0056B6EB00564FEA520E4EEAC37E36
:104A900018EB0E0E56EB530EBDD518EB02085E4117
:104AA0007F1C55F10005B6E74FF480154FF0000765
:104AB0004FF000064FF00008ADE7F0BC4FF00000EB
:104AC00001F1C04101F00041BDE8008111EA0C1F75
:104AD0000CEA131500D00CE013EA0C1F00F025803F
:104AE0004FF00000F0BC81EA030101F00041BDE895
:104AF0000081F0BCBDE8004181EA030100F0DAB9B1
:104B0000F0BCBDE8004170B500F086F9097EFC3EBE
:104B100000F007B881EA03014FF0000001F0004106
:104B2000704781EA030100F0C5B9F0BCBDE800415F
:104B30004FF0000021497047FFFDFBF9F7F5F4F253
:104B4000F0EEEDEBE9E8E6E4E3E1E0DEDDDBDAD828
:104B5000D7D5D4D3D1D0CFCDCCCBCAC8C7C6C5C486
:104B6000C2C1C0BFBEBDBCBBBAB9B8B7B6B5B4B39D
:104B7000B2B1B0AFAEADACABAAA9A8A8A7A6A5A488
:104B8000A3A3A2A1A09F9F9E9D9C9C9B9A9999984C
:104B90009797969595949393929191908F8F8E8EEF
:104BA0008D8C8C8B8B8A898988888787868585847C
:104BB00084838382828181800000FF070000F87F68
:104BC0004FEA41034FEA5353A3F58063D3F11E0329
:104BD000C8BFD3F1210C0CDD4FF0004242EAC122E4
:104BE00042EA505232FA03FC8CEAE17CACEBE17011
:104BF0007047102BC4BF0020704703F5787CBCF1D0
:104C0000FF3F04D06FF0004282EA2100704770B588
:104C100000F002F94992248000207047F2E710F07A
:104C2000004248BF4042B0FA80F310FA03F10AD0C4
:104C3000C3F11D0303F580634FEA415002EB0352B9
:104C400002EBD12170474FF00000704751EA030C8E
:104C500017D41CF5801F58BFBCF5801F00F10680DB
:104C6000994218BF704708BF9042704707D711F5A7
:104C7000801F58BF13F5801F19D49942704789428D
:104C800070471CF5801F08D5BCF5801FF7D58B42F7
:104C900018BF704708BF824270474FF4001C1CEBDE
:104CA000410F38BF1CEB430F01D28B42704770B5E8
:104CB00000F0B2F8922449004FF000514FF08053B9
:104CC000FFF71ABEDFF848C170B51CEA111E1EBFFF
:104CD0001CEA13159EEA0C0F95EA0C0F00F06F808A
:104CE00081EA030423EA4C134EEAD47E21EA4C11F4
:104CF00041F4801143F48013AE44A1FB024CA0FBAD
:104D00000365AEF17F7E361955EB0C05A1FB034C14
:104D10004CF10003A0FB021C16EB0C06654153F19D
:104D20000003094218BF46F0010613F4007F0BD1BF
:104D30004FEA03314FEA0530340341EA155140EAA6
:104D400016506FF003020AE04FEAC3214FEAC52074
:104D5000F40241EA555140EA56506FF0020202EB6C
:104D60002E4201EB025585EACE710AD05FEA440C6F
:104D700018BF24F0004450F1000041F1000120EA86
:104D8000D47040F2FE7C624500D270BDA84214BFD0
:104D90004FF080444FF04044002E08BF0024BEF185
:104DA000806FA8BFA1F1C041BDE8704080F2828051
:104DB0004FF0000001F1C04101F0004170479EEA50
:104DC0000C0F0CEA131518BF95EA0C0F06D04FF024
:104DD000000081EA030E0EF0004170BD00F01CF8E7
:104DE0008900013E00F007B800F009B84FEA430C13
:104DF0005FEA5C5C08D081EA030100F05BB84FEA2F
:104E0000410C5FEA5C5CF6D14FF00000014970474D
:104E10000000FF070000F87F0EF1020E2EF0030ED7
:104E20005EF8046B364205D4012A43EB030515F501
:104E3000001F12D8012841EB010C1CF5001F0CD8F3
:104E40000ED14FEAD17C15F5001F0CEB4C0C0CF188
:104E5000020C08BF4CEBD37C04E04FF0080C01E0DF
:104E60004FEAD37C0CEB4C0526FA05F606F0070654
:104E7000B6F1040C06D20EEB860CBDE870404CF087
:104E8000010C6047DFE80CF0090B02024FF0004113
:104E90004FF00000A1F5002170BD19461046012811
:104EA00051EB010418BFD4F5001484BF002001F0B9
:104EB000004170BD0808A0F500114FEA31017047AC
:104EC00053EA010C17D41CF5801F58BFBCF5801F96
:104ED00000F106808B4218BF704708BF82427047BE
:104EE00007D713F5801F58BF11F5801F19D48B42C7
:104EF00070479B4270471CF5801F08D5BCF5801F8A
:104F0000F7D5994218BF704708BF904270474FF4D9
:104F1000001C1CEB430F38BF1CEB410F01D2994220
:104F200070470FB40CBC03BCFFF7C1BE91EA030F7E
:104F300010B581F000413FF537AC83F0004300F03D
:104F4000EFB800002DE9F04101F5801CBCF5001F11
:104F5000C0F2C3804FEA115C21EA0C510CF1FD0C48
:104F600041F480115FEA5C0C0CF5C07C01D3400079
:104F700049413DA4890241EA905187028E0E0A0CF4
:104F8000A45D04FB04F602FB06F6C6F14046A4FB52
:104F90000662F60D46EA422606FB06F4A4FB012350
:104FA0005242C3F1404338BF5B1EA6FB02420024BD
:104FB000E6FB0324D20B42EA4446A6FB0623A1FBF0
:104FC00002E2A3FB07E4A4184FF0000252F1000232
:104FD000E3FB01426442C2F1404E38BFAEF1010E24
:104FE000A6FB04234FF00002E6FB0E32A2FB0346B1
:104FF0004FF00004B61954F10004E2FB0264A1FB77
:1050000006E6A4FB07E816EB08064FF0000858F187
:105010000008E4FB01687642C8F1405838BFA8F1A7
:105020000108A2FB06E4A3FB08E52D194FF00004DC
:1050300054F10004E2FB0854A1FB05E6A7FB04E8D9
:1050400018EB06084FF0000656F10006E1FB048657
:1050500018F1200556F10006A809A8F11B08B109AE
:1050600008F03F08B8F10A0F40EA86601CD901EB4E
:105070000C51BDE8F08100BFFCF5EEE8E2DDD8D3CD
:10508000CFCBC7C3C0BDB9B6B4B1AEACA9A7A5A3B9
:10509000A19F9D9B9A9896959392908F8D8C8B89CA
:1050A0008887868584838281A0FB006800FB01F2EB
:1050B00008EB4208B8EB872807D5341858EB0104F1
:1050C000D5D5401C51F10001D1E7341A78EB010429
:1050D000CDD4401E71F10001C9E75FEA4C0C5FEAD4
:1050E0009C5C0DD105D34FF0000001F00041BDE8FC
:1050F000F081BDE8F04170B5FFF78EFE6DDBFFBEBD
:10510000BDE8F0414FF00000004970470000F87F13
:1051100010B591EA030F48BF83F000433FF544AB5D
:10512000841A71EB030C07D212198CF0004C43EB7C
:105130000C03001B61EB0C01DFF8A4E14FEA1154F2
:10514000A4EB135C1EEA430F18BF9EEA445F00F015
:10515000B08023EA6E03524221EA0451C3EB6E038E
:1051600038BF5B1EDCF1200E25D322FA0CFE10EBBB
:105170000E0043FA0CFE41EB0E01CCF1200E03FAB7
:105180000EFE10EB0E0051F10001CCF1200E29D4DF
:1051900012FA0EF201EB0451BDE8104058BF7047FF
:1051A000401C1CBFB2F1004F704700280CBF491CC7
:1051B00020F00100704712EB020E43EB030218BF10
:1051C0004FF0010E4EEA4202ACF1200CDCF11E0E53
:1051D00054D943FA0CFE10EB0E0051F1FF31CCF123
:1051E0001E0ED5D50EF1010E12FA0EFE404141EB16
:1051F000010101EB445C5FEA5C5C10D910EBDE70EE
:1052000001EB045138BFBEF1004FBDE8104018BF9C
:10521000704700280CBF491C20F00100704730D2B5
:105220004FEAD42C11F5001124F400641BD0B1FA1C
:1052300081F20B3AA41AA41ED2F12003914030FA55
:1052400003F31943904001EBCC71002C01EB0451A6
:10525000BDE81040A8BF704701F1C0414FF0000009
:1052600001F000417047B0FA80F310FA03F100D169
:1052700010BDE41A173C4805C90AE4E701EB0451E4
:1052800010BD491001EB0451BDE810404FEA300059
:1052900002E04FF0000170474A0008BF0042F8D01A
:1052A000B2F5001F28BF704701F000414FF0000029
:1052B00070479EEA445F07D011EA5E0FBDE81040D8
:1052C00004BF002100207047BDE8104070B5FFF713
:1052D000A3FD00BF40DFF63E83F00041104670475B
:1052E0000000E0FF43004FEAD30C4FEA3C0C434080
:1052F0001FBF40070CF1605113F0FE4F70471CF0C8
:10530000006F03D100200CF0004170470CF0004307
:1053100043EA507010B540EACC0000F008FA00BF34
:10532000000000924FEA0001FFF7C4BD4FF00041BA
:105330004FF00000A1F500217047000090EA010F36
:1053400048BF81F0004100F17682421A3CBF801ACA
:1053500089184FEAD0524FF07F4C1CEA410FA2EB64
:10536000D15318BF9CEA026F00F03B804FF0004C15
:105370004CEA00204CEA012121FA03FC10EB0C0C52
:105380001ED202F1FF325FEA1C2040EBC25038BF50
:1053900070471CF07F0F4FEA400C18BFBCF17F4FE5
:1053A00038BF7047C3F12003994008BF20F00100C7
:1053B000BCF17F4F38BF7047A0F1C04000F0FDB98D
:1053C0004FEA3C00000A40EBC25028BF1CF0FF0F20
:1053D0004FEA400CE6D018BFBCF17F4F38BF704792
:1053E000EAE79CEA026F05D010EA5C0F08BF00F004
:1053F0000040704710B500F09AF900BF64FBBE3E54
:10540000401058BFC0F14040491058BFC1F1404161
:105410008142EFF3008070474FF47F0C1CEAD012FA
:105420001EBF1CEAD11392EA0C0F93EA0C0F00F096
:10543000858090EA010F48BF42F4807240F4000C6E
:1054400041F400002CF07F4120F07F4000B5814204
:10545000A2EB03020FF2081CACEB504EC0F10000AF
:105460009EF800E04FEA4E0E00FB0EFC38BF4900EC
:105470004FEA2C1C02F5FA020CFB0EF34FEACE1E8B
:105480004FEA112C4FEAC1210EEB635E42EB224240
:105490000EFB0CFC4FEA1C5300FB03114FEA112CCE
:1054A0004FEA01310EFB0CFC4FEADC4C00FB0C1107
:1054B000C14228BF09184CEB03335DF804EB10EB35
:1054C000410143EBC250B2F57C0F38BF704729D57C
:1054D00012F0F00F1CBF00F1C04000F00040704718
:1054E000008182838485868788898B8C8D8E8F91BD
:1054F0009293959697999A9C9D9FA0A2A3A5A7A8E1
:10550000AAACAEB0B2B3B5B7B9BCBEC0C2C5C7C90C
:10551000CCCED1D4D7D9DCDFE2E6E9ECF0F3F7FA70
:10552000FE0000004FEA400C0CF1807CBCF17E4F85
:1055300028BF7047B0F1C04000F03FB990EA010FBA
:105540000CEAD11348BF42F48072624538BF63450C
:1055500007D213F47F0F16D080EA010000F000405C
:10556000704710B500F0E3F8097EFC3E00F005B886
:1055700080EA010000F00040704780EA010000F07E
:10558000004000F01AB912F47F0F04BF02487047C0
:1055900080EA010000F011B90000C07FB0FA80F38A
:1055A00010FA03F2C3F19D030AD0D90501EB1220D2
:1055B000530638BF704700F1010008BF20F001001A
:1055C0007047000050EA010C00F113801CF5000F39
:1055D00058BFBCF5000F01D48842704707D710F5BB
:1055E000000F58BF11F5000F15D48842704789424B
:1055F00070471CF5000F04D5BCF5000FF7D58142AC
:1056000070474FF0807C1CEB400F38BF1CEB410F04
:1056100001D28142704710B500F089F89224490008
:105620004FF000504FF08051FFF7EABE4FF47F0C6F
:105630001CEAD0121EBF1CEAD11392EA0C0F93EAA7
:105640000C0F00F0478090EA010F48BF42F48072CF
:105650004FF0004C4CEA00204CEA012102EB03021F
:10566000A0FB0113A2F50002002918BF43F00103BB
:105670005B0028BF4FEA330342EB22425FEA132C60
:105680004CEBC2502EBFBCEB436FB2F57C0F7047A2
:105690004FEA036CBCF1004F08BF20F00100B2F5E7
:1056A0007C0F38BF70470BD582F0FF0212F5803FA8
:1056B000C8BF704700F1C040D8BF00F0004070473D
:1056C00000F5000C5FEA4C0C48BF7047B0F1C040D9
:1056D00000F073B890EA010F0CEAD11348BF42F40E
:1056E0008072624538BF634504D280EA010000F051
:1056F0000040704710B500F01AF800BF8900013E65
:1057000000F007B800F009B85FEA410C5FEA1C6CD2
:1057100008D080EA010000F050B85FEA400C5FEA70
:105720001C6CF6D14FF00040A0F5800070470EF1E0
:10573000020E2EF0030E5EF8044B244204D44FEA0E
:105740004102B2F17F4F11D84FEA4003B3F17F4FCE
:105750000CD80ED14FEAD07CB2F17F4F0CEB4C0C41
:105760000CF1020C08BF4CEBD17C04E04FF0080CAC
:1057700001E04FEAD17C0CEB4C0324FA03F404F073
:105780000704B4F1040C06D20EEB840CBDE8104003
:105790004CF0010C6047DFE80CF0070802024FF004
:1057A0000040A0F5800010BD0846420018BFD2F1AD
:1057B000807288BF00F0004010BDFF2141EAD05048
:1057C000C005704751EA000C00F113801CF5000F72
:1057D00058BFBCF5000F01D48142704707D711F5BF
:1057E000000F58BF10F5000F15D481427047894251
:1057F00070471CF5000F04D5BCF5000FF7D58842A3
:1058000070474FF0807C1CEB410F38BF1CEB400F02
:1058100001D28842704780EA010081EA000180EAF3
:105820000100FFF7F8BE000090EA010F48BF81F0C9
:1058300000413FF58AAD421A04D882F00042A0EB45
:10584000020011444FEAD0524FF07F4C1CEA410F46
:10585000A2EBD15318BF9CEA026F4AD04FF0004C24
:105860004CEA00204CEA012121FA03FCB0EB0C0CBD
:105870000FD412F0FE0F36D05FEA4C001DD5001297
:1058800040EBC25038BF70471CF03F0F18BF704745
:105890000BE0A2F101025FEA1C2040EBC25038BFCE
:1058A00070471CF07F0F18BF7047C3F12003994069
:1058B00014BF401E20F00100704780084FEA1223F9
:1058C00008BF7047B0FA80FCA2EB0C02CCF1280CA8
:1058D00060FA0CF093EA122F04BF00EBC25070473D
:1058E0004FEAC3707047130A5FEADC1008BF7047C5
:1058F000F6E79CEA026F04D010EA5C0F08BF0020B4
:10590000704710B5FFF713FF40DFF63E81F000400F
:1059100070470CF00F03092B08BF082000F05980D6
:105920000A2B0BD0082B18BF704708BF1CF0400F84
:105930000AD04FF000004FF0000170471CF0400FFC
:1059400018BF4FF0004070471CF0100F08D020F037
:10595000704300F07F4242EAD3014FEA4370704740
:1059600000F0604021F07F4242EA000201F07F40F7
:1059700040EA727070474FF0FF0C4CF4E06C1CEA88
:1059800011531CBF9CEA030C9445C2BFDA4201EBE1
:1059900002517047002B0DD0BCF1000F0FD0002A30
:1059A00001F00041A4BF41F0E04141F07F614FF0C0
:1059B0000000704701F000414FF00000704750EACE
:1059C00001334FF09B0C18BF4CF0806C7EF48CAF11
:1059D00070471CF4801F11D01CF4E02F03D06FEA35
:1059E000CC31490070474FF04050EFF3008222F075
:1059F000704242EA000282F3008870474FF00000D4
:105A000070470000000000000000010203040607C8
:105A1000080900000000010203046B008000190067
:105A200002006B0003001A0000001B0008001C00AD
:105A3000080011223344551122334455010102015B
:105A4000052D1120060F000F4FBB610567ACDD3F30
:105A5000182D4454FB21E93F9BF681D20B73EF3F95
:105A6000182D4454FB21F93FE2652F227F2B7A3C0D
:105A7000075C143326A6813CBDCBF07A8807703CC6
:105A8000075C143326A6913CC4EB98999999C9BF39
:105A9000711623FEC671BCBF6D9A74AFF2B0B3BF6E
:105AA0009AFDDE522DDEADBF2F6C6A2C44B4A2BF2E
:105AB0000D5555555555D53FFF8300922449C23F9A
:105AC0006E204CC5CD45B73F513DD0A0660DB13FCE
:105AD000EB0D76244B7BA93F11DA22E33AAD903FE0
